{
  "_format": "hh-sol-artifact-1",
  "contractName": "RAM",
  "sourceName": "contracts/RAM.sol",
  "abi": [
    {
      "inputs": [],
      "stateMutability": "nonpayable",
      "type": "constructor"
    },
    {
      "anonymous": false,
      "inputs": [
        {
          "indexed": false,
          "internalType": "uint256",
          "name": "id",
          "type": "uint256"
        },
        {
          "indexed": false,
          "internalType": "string",
          "name": "hash",
          "type": "string"
        },
        {
          "indexed": false,
          "internalType": "string",
          "name": "description",
          "type": "string"
        },
        {
          "indexed": false,
          "internalType": "address",
          "name": "author",
          "type": "address"
        }
      ],
      "name": "ImageCreated",
      "type": "event"
    },
    {
      "inputs": [],
      "name": "imageCount",
      "outputs": [
        {
          "internalType": "uint256",
          "name": "",
          "type": "uint256"
        }
      ],
      "stateMutability": "view",
      "type": "function"
    },
    {
      "inputs": [
        {
          "internalType": "uint256",
          "name": "",
          "type": "uint256"
        }
      ],
      "name": "images",
      "outputs": [
        {
          "internalType": "uint256",
          "name": "id",
          "type": "uint256"
        },
        {
          "internalType": "string",
          "name": "hash",
          "type": "string"
        },
        {
          "internalType": "string",
          "name": "description",
          "type": "string"
        },
        {
          "internalType": "address",
          "name": "author",
          "type": "address"
        }
      ],
      "stateMutability": "view",
      "type": "function"
    },
    {
      "inputs": [],
      "name": "name",
      "outputs": [
        {
          "internalType": "string",
          "name": "",
          "type": "string"
        }
      ],
      "stateMutability": "view",
      "type": "function"
    },
    {
      "inputs": [
        {
          "internalType": "string",
          "name": "_imgHash",
          "type": "string"
        },
        {
          "internalType": "string",
          "name": "_description",
          "type": "string"
        }
      ],
      "name": "uploadImage",
      "outputs": [],
      "stateMutability": "nonpayable",
      "type": "function"
    }
  ],
  "bytecode": "0x6080604052600060015534801561001557600080fd5b506040518060400160405280601681526020017f52616e646f6d20416363657373204d656d6f726965730000000000000000000081525060009080519060200190610061929190610067565b5061016b565b8280546100739061010a565b90600052602060002090601f01602090048101928261009557600085556100dc565b82601f106100ae57805160ff19168380011785556100dc565b828001600101855582156100dc579182015b828111156100db5782518255916020019190600101906100c0565b5b5090506100e991906100ed565b5090565b5b808211156101065760008160009055506001016100ee565b5090565b6000600282049050600182168061012257607f821691505b602082108114156101365761013561013c565b5b50919050565b7f4e487b7100000000000000000000000000000000000000000000000000000000600052602260045260246000fd5b610b66806200017b6000396000f3fe608060405234801561001057600080fd5b506004361061004c5760003560e01c806306fdde0314610051578063848564821461006f57806392053b63146100a2578063a91b8314146100c0575b600080fd5b6100596100dc565b6040516100669190610774565b60405180910390f35b6100896004803603810190610084919061068b565b61016a565b6040516100999493929190610811565b60405180910390f35b6100aa6102ca565b6040516100b791906107f6565b60405180910390f35b6100da60048036038101906100d5919061061f565b6102d0565b005b600080546100e990610954565b80601f016020809104026020016040519081016040528092919081815260200182805461011590610954565b80156101625780601f1061013757610100808354040283529160200191610162565b820191906000526020600020905b81548152906001019060200180831161014557829003601f168201915b505050505081565b600260205280600052604060002060009150905080600001549080600101805461019390610954565b80601f01602080910402602001604051908101604052809291908181526020018280546101bf90610954565b801561020c5780601f106101e15761010080835404028352916020019161020c565b820191906000526020600020905b8154815290600101906020018083116101ef57829003601f168201915b50505050509080600201805461022190610954565b80601f016020809104026020016040519081016040528092919081815260200182805461024d90610954565b801561029a5780601f1061026f5761010080835404028352916020019161029a565b820191906000526020600020905b81548152906001019060200180831161027d57829003601f168201915b5050505050908060030160009054906101000a900473ffffffffffffffffffffffffffffffffffffffff16905084565b60015481565b6000825111610314576040517f08c379a000000000000000000000000000000000000000000000000000000000815260040161030b90610796565b60405180910390fd5b6000815111610358576040517f08c379a000000000000000000000000000000000000000000000000000000000815260040161034f906107d6565b60405180910390fd5b600073ffffffffffffffffffffffffffffffffffffffff163373ffffffffffffffffffffffffffffffffffffffff1614156103c8576040517f08c379a00000000000000000000000000000000000000000000000000000000081526004016103bf906107b6565b60405180910390fd5b600160008154809291906103db906109b7565b9190505550604051806080016040528060015481526020018381526020018281526020013373ffffffffffffffffffffffffffffffffffffffff168152506002600060015481526020019081526020016000206000820151816000015560208201518160010190805190602001906104549291906104ff565b5060408201518160020190805190602001906104719291906104ff565b5060608201518160030160006101000a81548173ffffffffffffffffffffffffffffffffffffffff021916908373ffffffffffffffffffffffffffffffffffffffff1602179055509050507fb82a9f3a70bc97d2ca962d6c417b770c2158b2014d3f028d4de74b315692d4c76001548383336040516104f39493929190610811565b60405180910390a15050565b82805461050b90610954565b90600052602060002090601f01602090048101928261052d5760008555610574565b82601f1061054657805160ff1916838001178555610574565b82800160010185558215610574579182015b82811115610573578251825591602001919060010190610558565b5b5090506105819190610585565b5090565b5b8082111561059e576000816000905550600101610586565b5090565b60006105b56105b084610889565b610864565b9050828152602081018484840111156105cd57600080fd5b6105d8848285610912565b509392505050565b600082601f8301126105f157600080fd5b81356106018482602086016105a2565b91505092915050565b60008135905061061981610b19565b92915050565b6000806040838503121561063257600080fd5b600083013567ffffffffffffffff81111561064c57600080fd5b610658858286016105e0565b925050602083013567ffffffffffffffff81111561067557600080fd5b610681858286016105e0565b9150509250929050565b60006020828403121561069d57600080fd5b60006106ab8482850161060a565b91505092915050565b6106bd816108d6565b82525050565b60006106ce826108ba565b6106d881856108c5565b93506106e8818560208601610921565b6106f181610a8d565b840191505092915050565b6000610709600e836108c5565b915061071482610a9e565b602082019050919050565b600061072c6010836108c5565b915061073782610ac7565b602082019050919050565b600061074f6015836108c5565b915061075a82610af0565b602082019050919050565b61076e81610908565b82525050565b6000602082019050818103600083015261078e81846106c3565b905092915050565b600060208201905081810360008301526107af816106fc565b9050919050565b600060208201905081810360008301526107cf8161071f565b9050919050565b600060208201905081810360008301526107ef81610742565b9050919050565b600060208201905061080b6000830184610765565b92915050565b60006080820190506108266000830187610765565b818103602083015261083881866106c3565b9050818103604083015261084c81856106c3565b905061085b60608301846106b4565b95945050505050565b600061086e61087f565b905061087a8282610986565b919050565b6000604051905090565b600067ffffffffffffffff8211156108a4576108a3610a5e565b5b6108ad82610a8d565b9050602081019050919050565b600081519050919050565b600082825260208201905092915050565b60006108e1826108e8565b9050919050565b600073ffffffffffffffffffffffffffffffffffffffff82169050919050565b6000819050919050565b82818337600083830152505050565b60005b8381101561093f578082015181840152602081019050610924565b8381111561094e576000848401525b50505050565b6000600282049050600182168061096c57607f821691505b602082108114156109805761097f610a2f565b5b50919050565b61098f82610a8d565b810181811067ffffffffffffffff821117156109ae576109ad610a5e565b5b80604052505050565b60006109c282610908565b91507fffffffffffffffffffffffffffffffffffffffffffffffffffffffffffffffff8214156109f5576109f4610a00565b5b600182019050919050565b7f4e487b7100000000000000000000000000000000000000000000000000000000600052601160045260246000fd5b7f4e487b7100000000000000000000000000000000000000000000000000000000600052602260045260246000fd5b7f4e487b7100000000000000000000000000000000000000000000000000000000600052604160045260246000fd5b6000601f19601f8301169050919050565b7f4d75737420686176652048415348000000000000000000000000000000000000600082015250565b7f4d757374206861766520415554484f5200000000000000000000000000000000600082015250565b7f4d7573742068617665204445534352495054494f4e0000000000000000000000600082015250565b610b2281610908565b8114610b2d57600080fd5b5056fea2646970667358221220df90dbc11dcef2651ffcbf523672b79510f8bd153ecc0950d0c87c9f4455948964736f6c63430008030033",
  "linkReferences": {},
  "deployedLinkReferences": {}
}